:10000E000000F88BF8F2F95BF9B7FA14FA66FAB950
:10001E00FB03FB4AFB8FFBCFFC0BFC43FC78FCABDA
:10002E00FCDBFD08FD33FD5BFD81FDA5FDC7FDE796
:10003E00FE05FE21FE3CFE55FE6DFE84FE99FEADD4
:10004E00FEC0FE02FEE3FEF3FF02FF10FF1DFF2ABD
:10005E00FF36FF42FF4CFF56FF60FF69FF71FF79CD
:10006E00FF81000412021302150217020B041A027A
:10007E0017060002120213021502170209041A02D1
:10008E0017021502170213021502120213020E02B4
:10009E00000412021302150217020B041A021706AD
:1000AE000002120213021502170209041A021702A5
:1000BE001502170213021502120213020E02000499
:1000CE00090607020906070209040B040E040B04B5
:1000DE00090607020906070209020B0209020702B6
:1000EE0001040004090607020906070209040B04AD
:1000FE000E040B0409060B02090407040908000884
:10010E00090607020906070209040B040E040B0474
:10011E0009060B0209040704030400040B0209027A
:10012E0007020902070400040B0209020702090272
:10013E00070400040B02090207020902070800085F
:10014E000004070409040B04070410040E02100631
:10015E00000207021204100212060004120410021A
:10016E0012060B04130215021302120210040E04DF
:10017E0010040E0210040E0210020E0210040E02E3
:10018E0009040E040B080008070409040B040704F5
:10019E0010040E02100600020702120410021206CC
:1001AE0000041204100212060B04130215021302AD
:1001BE00120210040E041004170217060E04100487
:1001CE00170217040E041002100C00041304150479
:1001DE0017041C021A061C021A061C021A06150423
:1001EE0017061C021A061C021A061C021A0417080D
:1001FE001504130210041304130215041302100441
:10020E001304170817041506000413041504170425
:10021E001C021A061C021A061C021A0600021502FD
:10022E0017041C021A061C021A061C021A061706CE
:10023E0015041302100417041504130210041002FF
:10024E0013021308000410021706150413021004FB
:10025E001704150413021004100213061308FFFFEF
:1007A7000212000002440000010800012D00082E7B
:1007B70080402010080402010A237FDFF7FD5F77DE
:1007C7007DD7DDF50A183F065B4F666D7D077F6FA6
:1007D7000809FFFFFFFFFFFFFFFF0836FF40FFFF8E
:0407E700FFFFFFFF12
:040925007F02DFFE70
:0109290022AB
:05000300007FE3DFFEB9
:0100080022D5
:0A0828002547F8E6F5807F017E0009
:040832008E4C8F4D0C
:10083600E4F54EF54FC3E54F954DE54C6480F8E57C
:100846004E6480985016007F027EC7DEFEDFFC12E3
:0C08560008C2054FE54F70DD054E80D94B
:010862002273
:02089800AE07A9
:10089A00E4FDEE7807A2E713D8FB24FF92B4EE2515
:1008AA00E0FEC2B6120925D2B61209250DBD08E22C
:0708BA00C2B5120925D2B5F9
:0108C1002214
:1006C100EE7050EFB40800504A9006D1F828287314
:1006D1000206E90206ED0206F40206F80206FF022E
:1006E100070302070A02070ED2A28002C2A2D2A306
:1006F100D2A422D2A28002C2A2C2A3D2A422D2A296
:100701008002C2A2D2A3C2A422D2A28002C2A2C2E9
:04071100A3C2A422B9
:100762007516007517010517E5177002051630B1E9
:100772000930B00630B20320B3EC12092520B107CC
:100782007522017536062220B00775220275365B86
:100792002220B20775220375364F2220B3C8752274
:0507A20004753666221B
:1007EC007F0674092FF8E6FE740A2FF8A6061FC3BD
:1007FC00EF6480948050EBE52D701A752D01120773
:10080C00157C007D0A1204228C428D4374232543EF
:0B081C00F8E6F50922E4F52D7509FF50
:0108270022AE
:10026E00E4F511E51012045802DD5F02EF77030189
:10027E007D02987F0313D70325DD02AADF0337F52E
:10028E0002BCF702CEFD0000034930B10302034C5D
:10029E00751101053FE53F7035053E2230B0030272
:1002AE00034C751101053FE53F7002053E2230B249
:1002BE000302034C751101053FE53F7002053E2216
:1002CE0020B37B751101053FE53F7002053E2220EC
:1002DE00B16C20B069751101053FE53F7002053E16
:1002EE002220B15A20B257751101053FE53F704EDD
:1002FE00053E2220B14820B345751101053FE53F6B
:10030E00703C053E2220B03620B233751101053FF8
:10031E00E53F702A053E2220B02420B3217511013D
:10032E00053FE53F7018053E2220B21220B30F752F
:0F033E001101053FE53F7006053E2275110122B2
:04034D008F828E838A
:100351007C007D0A1204228E4E8F4FE54F454E7070
:1003610019F514751503FC7D0AAF82AE83120422C0
:10037100AB0574182BF8E6F53822C3E54F940AE56E
:100381004E64809480404D7514007515057C007D88
:100391000AAF82AE83120422AB057C007D0AAF82D4
:1003A100AE831204227C007D0A1204228C4C8D4DF6
:1003B1007C007D64AF82AE8312042274182FF8E6AC
:1003C100F5387418254DF8E6F539AF0374182FF890
:1003D100E6F53A227514007515047C007D0AAF829A
:1003E100AE83120422AB05AE83AF827C007D0A127C
:1003F10004227C007D0A1204228C4C8D4D74182538
:0E0401004DF8E6F538AF0374182FF8E6F5391C
:01040F0022CA
:1008E3007D327C00ED1DAE0470011C4E6007B2A585
:0508F30012000380EF7C
:0108F80022DD
:1008F9005389F0438901E4F58CF58AD2A9D2AFC2B4
:020909008C223E
:03000B0002086385
:10086300C0E0C083C082C0D0B2A5E54025E0240E1D
:10087300F582E43400F583E493F58CE54025E02428
:100883000FF582E43400F583E493F58AD0D0D08267
:05089300D083D0E0322B
:10059000E51325E0FFE51233FE74702FF582740039
:1005A0003EF583E493F54074712FF58274003EF5B7
:1005B00083E493F541E540B4FF2AE4F512F513E531
:1005C0001325E0FFE51233FE74702FF58274003EB0
:1005D000F583E493F54074712FF58274003EF58342
:1005E000E493F541E5407006C28CC2A58024E54045
:1005F00025E0240EF582E43400F583E493F58CE5E0
:100600004025E0240FF582E43400F583E493F58A75
:10061000D28CAF417E007C007D461204108E448F48
:1006200045E54545447005F5447545460513E51314
:0506300070020512221A
:0F090B00E4F512F513F544F54575080102059062
:1008C200E508601CD3E5459400E54494004008E542
:1008D20045154570021544E54545447003120590DF
:0108E20022F3
:1004D300E4F53EF53F120762AF17AE16120757E574
:1004E3002224FE60121460111460162403701A751E
:1004F3004A00754B3280188010754A00754B148082
:100503000E754A00754B0A8006754A00754B1E85A9
:100513004A48854B491207ECE5491549AE48700234
:1005230015484E602BE4F546F547C3E5479408E5C7
:10053300466480948050E1742E2547F8E6FF120844
:100543009874091208280547E54770DE054680DAE6
:1005530012026E1208E3E51170B5AF3FAE3E12030F
:100563004DE4F546F547C3E5479515E5146480F872
:10057300E54664809850EAAF47AE461206C174362A
:0D0583001208280547E54770DD054680D9C0
:0B091A00C2A51208F912090B0204D359
:03000000020635C0
:0C063500787FE4F6D8FD75815302067C46
:10041000EF8DF0A4A8F0CF8CF0A428CE8DF0A42E00
:02042000FE22BA
:10042200C2D5EC30E709B2D5E4C39DFDE49CFCEEF5
:1004320030E715B2D5E4C39FFFE49EFE12047EC3EB
:10044200E49DFDE49CFC800312047E30D507C3E4E6
:060452009FFFE49EFE2264
:10045800D083D082F8E4937012740193700DA3A333
:1004680093F8740193F5828883E473740293686047
:06047800EFA3A3A380DF47
:10071500AC50AD51AE52AF537810EC4D4E4F700406
:100725007CA57DA5C3EC13FCED13FDEE13FEEF13C5
:10073500FF5010EC64CCFCED644CFDEE644EFEEF16
:1007450064CEFFD8DF8C508D518E528F53EE547F7F
:0D075500FE228E508F5174A5F552F55322EF
:1006410002091AE493A3F8E493A34003F68001F2AC
:1006510008DFF48029E493A3F85407240CC8C333BA
:10066100C4540F4420C8834004F456800146F6DF89
:10067100E4800B01020408102040809007A7E47E6B
:10068100019360BCA3FF543F30E509541FFEE4937E
:10069100A360010ECF54C025E060A840B8E493A345
:1006A100FAE493A3F8E493A3C8C582C8CAC583CA70
:1006B100F0A3C8C582C8CAC583CADFE9DEE780BE28
:0107EB00000D
:10047E00BC000BBE0029EF8DF084FFADF022E4CC62
:10048E00F875F008EF2FFFEE33FEEC33FCEE9DEC2B
:10049E00984005FCEE9DFE0FD5F0E9E4CEFD22ED71
:1004AE00F8F5F0EE8420D21CFEADF075F008EF2FBB
:1004BE00FFED33FD4007985006D5F0F222C398FDAC
:0504CE000FD5F0EA2249
:00000001FF
